{
  "abi": [
    {
      "inputs": [],
      "stateMutability": "payable",
      "type": "constructor"
    },
    {
      "inputs": [
        {
          "internalType": "uint256",
          "name": "amount",
          "type": "uint256"
        },
        {
          "internalType": "uint256",
          "name": "balance",
          "type": "uint256"
        }
      ],
      "name": "OverWithdrawal",
      "type": "error"
    },
    {
      "anonymous": false,
      "inputs": [
        {
          "indexed": false,
          "internalType": "string",
          "name": "message",
          "type": "string"
        }
      ],
      "name": "ContractDeployed",
      "type": "event"
    },
    {
      "anonymous": false,
      "inputs": [
        {
          "indexed": false,
          "internalType": "string",
          "name": "success_msg",
          "type": "string"
        }
      ],
      "name": "WithdrawalSuccessful",
      "type": "event"
    },
    {
      "stateMutability": "payable",
      "type": "fallback"
    },
    {
      "inputs": [],
      "name": "getBalance",
      "outputs": [
        {
          "internalType": "uint256",
          "name": "",
          "type": "uint256"
        }
      ],
      "stateMutability": "nonpayable",
      "type": "function"
    },
    {
      "inputs": [
        {
          "internalType": "address",
          "name": "recipient",
          "type": "address"
        },
        {
          "internalType": "uint256",
          "name": "amount",
          "type": "uint256"
        }
      ],
      "name": "withdraw",
      "outputs": [],
      "stateMutability": "nonpayable",
      "type": "function"
    },
    {
      "stateMutability": "payable",
      "type": "receive"
    }
  ],
  "bytecode": "60806040819052600080546001600160a01b0319163317905560208152601160a0527010dbdb9d1c9858dd0819195c1b1bde5959607a1b60c0527f0d0ebe685f2c334e83847eb5e89a8d3d8919558c63ef37cf7fc3e7b86dd88b6d90606090a161024f8061006e6000396000f3fe60806040526004361061002a5760003560e01c806312065fe014610033578063f3fef3a31461005357005b3661003157005b005b34801561003f57600080fd5b504760405190815260200160405180910390f35b34801561005f57600080fd5b5061003161006e3660046101e1565b6000546001600160a01b031633146100c35760405162461bcd60e51b815260206004820152601360248201527221b0b63632b91034b9903737ba1037bbb732b960691b60448201526064015b60405180910390fd5b478181101561012c5760405162461bcd60e51b815260206004820152602f60248201527f5769746864726177616c20616d6f756e7420697320686967686572207468616e60448201526e2077616c6c65742062616c616e636560881b60648201526084016100ba565b6040516001600160a01b038416908390600081818185875af1925050503d8060008114610175576040519150601f19603f3d011682016040523d82523d6000602084013e61017a565b606091505b5050507fbef4c2e8467a457c0b1389977b0f15e387cac9cec1c10f75923997b2abbe9f376040516101d49060208082526015908201527415da5d1a191c985dd85b081cdd58d8d95cdcd99d5b605a1b604082015260600190565b60405180910390a1505050565b600080604083850312156101f457600080fd5b82356001600160a01b038116811461020b57600080fd5b94602093909301359350505056fea2646970667358221220cb8e1b11b87b6205092343dd4a40d462a259a1f5386896b92f0b92484bda5f0064736f6c63430008070033",
  "bytecodeSha1": "eb4986973cade8f802ceda35f32a933a36b0a2a2",
  "compiler": {
    "evm_version": "istanbul",
    "optimizer": {
      "enabled": true,
      "runs": 200
    },
    "version": "0.8.7+commit.e28d00a7"
  },
  "contractName": "EtherWallet",
  "language": "Solidity",
  "natspec": {
    "kind": "dev",
    "methods": {},
    "version": 1
  },
  "opcodes": "PUSH1 0x80 PUSH1 0x40 MSTORE PUSH1 0x4 CALLDATASIZE LT PUSH2 0x2A JUMPI PUSH1 0x0 CALLDATALOAD PUSH1 0xE0 SHR DUP1 PUSH4 0x12065FE0 EQ PUSH2 0x33 JUMPI DUP1 PUSH4 0xF3FEF3A3 EQ PUSH2 0x53 JUMPI STOP JUMPDEST CALLDATASIZE PUSH2 0x31 JUMPI STOP JUMPDEST STOP JUMPDEST CALLVALUE DUP1 ISZERO PUSH2 0x3F JUMPI PUSH1 0x0 DUP1 REVERT JUMPDEST POP SELFBALANCE PUSH1 0x40 MLOAD SWAP1 DUP2 MSTORE PUSH1 0x20 ADD PUSH1 0x40 MLOAD DUP1 SWAP2 SUB SWAP1 RETURN JUMPDEST CALLVALUE DUP1 ISZERO PUSH2 0x5F JUMPI PUSH1 0x0 DUP1 REVERT JUMPDEST POP PUSH2 0x31 PUSH2 0x6E CALLDATASIZE PUSH1 0x4 PUSH2 0x1E1 JUMP JUMPDEST PUSH1 0x0 SLOAD PUSH1 0x1 PUSH1 0x1 PUSH1 0xA0 SHL SUB AND CALLER EQ PUSH2 0xC3 JUMPI PUSH1 0x40 MLOAD PUSH3 0x461BCD PUSH1 0xE5 SHL DUP2 MSTORE PUSH1 0x20 PUSH1 0x4 DUP3 ADD MSTORE PUSH1 0x13 PUSH1 0x24 DUP3 ADD MSTORE PUSH19 0x21B0B63632B91034B9903737BA1037BBB732B9 PUSH1 0x69 SHL PUSH1 0x44 DUP3 ADD MSTORE PUSH1 0x64 ADD JUMPDEST PUSH1 0x40 MLOAD DUP1 SWAP2 SUB SWAP1 REVERT JUMPDEST SELFBALANCE DUP2 DUP2 LT ISZERO PUSH2 0x12C JUMPI PUSH1 0x40 MLOAD PUSH3 0x461BCD PUSH1 0xE5 SHL DUP2 MSTORE PUSH1 0x20 PUSH1 0x4 DUP3 ADD MSTORE PUSH1 0x2F PUSH1 0x24 DUP3 ADD MSTORE PUSH32 0x5769746864726177616C20616D6F756E7420697320686967686572207468616E PUSH1 0x44 DUP3 ADD MSTORE PUSH15 0x2077616C6C65742062616C616E6365 PUSH1 0x88 SHL PUSH1 0x64 DUP3 ADD MSTORE PUSH1 0x84 ADD PUSH2 0xBA JUMP JUMPDEST PUSH1 0x40 MLOAD PUSH1 0x1 PUSH1 0x1 PUSH1 0xA0 SHL SUB DUP5 AND SWAP1 DUP4 SWAP1 PUSH1 0x0 DUP2 DUP2 DUP2 DUP6 DUP8 GAS CALL SWAP3 POP POP POP RETURNDATASIZE DUP1 PUSH1 0x0 DUP2 EQ PUSH2 0x175 JUMPI PUSH1 0x40 MLOAD SWAP2 POP PUSH1 0x1F NOT PUSH1 0x3F RETURNDATASIZE ADD AND DUP3 ADD PUSH1 0x40 MSTORE RETURNDATASIZE DUP3 MSTORE RETURNDATASIZE PUSH1 0x0 PUSH1 0x20 DUP5 ADD RETURNDATACOPY PUSH2 0x17A JUMP JUMPDEST PUSH1 0x60 SWAP2 POP JUMPDEST POP POP POP PUSH32 0xBEF4C2E8467A457C0B1389977B0F15E387CAC9CEC1C10F75923997B2ABBE9F37 PUSH1 0x40 MLOAD PUSH2 0x1D4 SWAP1 PUSH1 0x20 DUP1 DUP3 MSTORE PUSH1 0x15 SWAP1 DUP3 ADD MSTORE PUSH21 0x15DA5D1A191C985DD85B081CDD58D8D95CDCD99D5B PUSH1 0x5A SHL PUSH1 0x40 DUP3 ADD MSTORE PUSH1 0x60 ADD SWAP1 JUMP JUMPDEST PUSH1 0x40 MLOAD DUP1 SWAP2 SUB SWAP1 LOG1 POP POP POP JUMP JUMPDEST PUSH1 0x0 DUP1 PUSH1 0x40 DUP4 DUP6 SUB SLT ISZERO PUSH2 0x1F4 JUMPI PUSH1 0x0 DUP1 REVERT JUMPDEST DUP3 CALLDATALOAD PUSH1 0x1 PUSH1 0x1 PUSH1 0xA0 SHL SUB DUP2 AND DUP2 EQ PUSH2 0x20B JUMPI PUSH1 0x0 DUP1 REVERT JUMPDEST SWAP5 PUSH1 0x20 SWAP4 SWAP1 SWAP4 ADD CALLDATALOAD SWAP4 POP POP POP JUMP INVALID LOG2 PUSH5 0x6970667358 0x22 SLT KECCAK256 0xCB DUP15 SHL GT 0xB8 PUSH28 0x6205092343DD4A40D462A259A1F5386896B92F0B92484BDA5F006473 PUSH16 0x6C634300080700330000000000000000 ",
  "sha1": "96e216cd091fa532922d51bd86de6e3f9771e94c",
  "source": "// ALL THANKS AND GLORY TO THE AND my ONLY GOD AND LORD JESUS CHRIST ALONE\n// BY GOD'S GRACE ALONE\n\n//SPDX-Licens-Identifier:MIT\n\npragma solidity ^0.8.7;\n\ncontract EtherWallet{\n    address payable owner;\n\n    error OverWithdrawal(uint256 amount, uint256 balance);\n    event WithdrawalSuccessful(string success_msg);\n    event ContractDeployed(string message);\n\n    constructor() payable {\n        owner = payable(msg.sender);\n        emit ContractDeployed(\"Contract deployed\");\n    }\n\n    receive() external payable{}\n\n    fallback() external payable{}\n\n    function withdraw(address recipient, uint256 amount) external{\n        \n        require(msg.sender == owner, \"Caller is not owner\");\n\n        uint256 contractBalance = address(this).balance;\n        require(contractBalance >= amount, \"Withdrawal amount is higher than wallet balance\");\n        payable(recipient).call{value:amount}(\"\");\n        \n        emit WithdrawalSuccessful(\"Withdrawal successful\");\n    }\n\n    function getBalance() external  returns(uint256) {\n        return address(this).balance;\n    }\n\n}",
  "sourcePath": "contracts/EtherWallet.sol",
  "type": "contract"
}